:100000000C9466000C948E000C948E000C948E0060
:100010000C948E000C948E000C948E000C948E0028
:100020000C948E000C948E000C948E000C94CD05D4
:100030000C948E000C948E000C948E000C948E0008
:100040000C9483050C948E000C9451050C942B0594
:100050000C948E000C948E000C948E000C948E00E8
:100060000C948E000C948E00000000080002010029
:10007000000304070000000000000000000102036C
:1000800004051112131415160A0B0C0D0E0F0000A7
:100090000000250028002B0000000000240027009D
:1000A0002A000404040404040404020202020202FA
:1000B000030303030303010204081020408001022C
:1000C000040810200102040810208E0611241FBE0F
:1000D000CFEFD8E0DEBFCDBF11E0A0E0B1E0E4ECAF
:1000E000F4E102C005900D92AE34B107D9F722E0D9
:1000F000AEE4B1E001C01D92A734B207E1F710E011
:10010000C6E6D0E004C02197FE010E94550AC5361C
:10011000D107C9F70E94E0060C94600A0C94000015
:1001200090E0FC01EA54FF4F2491FC01EE55FF4F93
:100130008491882399F090E0880F991FFC01E8567C
:10014000FF4FA591B491FC01E257FF4F8591949127
:100150008FB7F894EC91E22BEC938FBF0895CF9278
:10016000DF92EF92FF920F931F93CF93DF936C0177
:100170007A018B01C0E0D0E0CE15DF0589F0D8010F
:100180006D918D01D601ED91FC910190F081E02DF2
:10019000C6010995892B11F47E0102C02196ECCF8E
:1001A000C701DF91CF911F910F91FF90EF90DF90EA
:1001B000CF900895089580E090E00895FC01538D5C
:1001C000448D252F30E0842F90E0821B930B541731
:1001D00010F0CF96089501970895FC01918D828DBE
:1001E000981761F0828DDF01A80FB11D5D968C918B
:1001F000928D9F5F9F73928F90E008958FEF9FEF96
:100200000895FC01918D828D981731F0828DE80F51
:10021000F11D858D90E008958FEF9FEF0895FC010B
:10022000918D228D892F90E0805C9F4F821B9109D8
:100230008F73992708958EE891E00E940F0121E0C5
:10024000892B09F420E0822F0895FC01848DDF01C1
:10025000A80FB11DA35ABF4F2C91848D90E0019639
:100260008F739927848FA689B7892C93A089B18928
:100270008C9180648C93938D848D981306C0028832
:10028000F389E02D80818F7D80830895EF92FF9226
:100290000F931F93CF93DF93EC0181E0888F9B8DA9
:1002A0008C8D981305C0E889F989808185FD24C06B
:1002B000F62E0B8D10E00F5F1F4F0F731127E02EEE
:1002C0008C8DE8120CC00FB607FCFACFE889F989CB
:1002D000808185FFF5CFCE010E942501F1CF8B8D66
:1002E000FE01E80FF11DE35AFF4FF0820B8FEA8900
:1002F000FB898081806207C0EE89FF896083E8897D
:10030000F98980818064808381E090E0DF91CF91E2
:100310001F910F91FF90EF900895CF93DF93EC0121
:10032000888D8823C9F0EA89FB89808185FD05C015
:10033000A889B9898C9186FD0FC00FB607FCF5CF4F
:10034000808185FFF2CFA889B9898C9185FFEDCF97
:10035000CE010E942501E7CFDF91CF91089580E083
:1003600090E0892B29F00E941B0181110C94000060
:10037000089590E0FC01E859FF4F3491FC01EA54E4
:10038000FF4F2491FC01EE55FF4FE491EE2309F459
:100390003BC0332339F1333091F038F43130A9F0D8
:1003A000323001F584B58F7D12C0373091F038308E
:1003B000A1F03430B9F4809180008F7D03C080912A
:1003C00080008F77809380000DC084B58F7784BDC7
:1003D00009C08091B0008F7703C08091B0008F7DFD
:1003E0008093B000F0E0EE0FFF1FE257FF4FA591A2
:1003F000B4918FB7F894EC91611103C020952E232E
:1004000001C02E2B2C938FBF08953FB7F894809195
:10041000750190917601A0917701B091780126B590
:10042000A89B05C02F3F19F00196A11DB11D3FBF2C
:10043000BA2FA92F982F8827820F911DA11DB11DBA
:10044000BC01CD0142E0660F771F881F991F4A95B6
:10045000D1F708958F929F92AF92BF92CF92DF9281
:10046000EF92FF926B017C010E9405024B015C013F
:10047000C114D104E104F104F1F00E940502DC0191
:10048000CB0188199909AA09BB09883E9340A105A7
:10049000B10570F321E0C21AD108E108F10888EE35
:1004A000880E83E0981EA11CB11CC114D104E10484
:1004B000F10419F7DDCFFF90EF90DF90CF90BF9060
:1004C000AF909F908F900895FC0190819C3080F5B3
:1004D000818128E830E0281B310987FD3395220F00
:1004E000331F220F331F621773077CF0828128E5C8
:1004F00032E0281B310987FD3395220F331F220F6D
:10050000331F621773070CF49B0122503109220F2D
:10051000331F4FB7F894892F90E0FC01EE0FFF1FB7
:100520008E0F9F1FFC01E05BFE4F328321834FBF84
:100530000895CF92DF92EF92FF92CF93DF93EC0179
:10054000603282E078070CF03DC077FD06C0653B65
:1005500071052CF064EB70E002C060E070E089810E
:1005600028E830E06901C81AD10887FDD394CC0C83
:10057000DD1CCC0CDD1C0D2C000CEE08FF088A8164
:1005800028E532E0281B310987FD3395220F331F00
:10059000220F331FC901330FAA0BBB0B9C01AD0106
:1005A0002C193D094E095F09DB010E94FD0924EB6E
:1005B00030E040E050E00E94D309C20ED31EE41E9A
:1005C000F51EB601CE01DF91CF91FF90EF90DF9045
:1005D000CF900C9464020F931F93CF93DF931F92DD
:1005E000CDB7DEB78C01DC018C918C3008F055C0A2
:1005F000862F69830E949000F8018081E82FF0E047
:100600009F01220F331FE20FF31FE05BFE4F698152
:100610006F739081907C692B6083D80111961C9236
:10062000119712961C926CE00E94360ABCE08B9FD8
:10063000B001112440E050E09A01260F371FF90164
:10064000EE0FFF1F2E0F3F1FF901E05BFE4F908161
:1006500096FD16C04F5F5F4F4C30510569F7811111
:100660000FC01092800082E080938100109285007C
:1006700010928400B19A80916F00826080936F0025
:10068000D801EC91F0E0CF01880F991FE80FF91F16
:10069000E05BFE4F808180648083F80180810F9051
:1006A000DF91CF911F910F910895FC0190914F011F
:1006B0009C30A0F481E0890F80934F019083892FB3
:1006C00090E0FC01EE0FFF1F8E0F9F1FFC01E05B0F
:1006D000FE4F88EB9BE09283818308958FEF8083A8
:1006E00008958EBD00000DB407FEFDCF8EB50895B0
:1006F0008F929F92AF92BF92CF92DF92EF92FF9232
:10070000A0917E01B0917F0128EE33E00E94420A61
:1007100088248A9423E0922EA12CB12CA501940167
:100720000E94D309CA01B90168517C4F8F4F9F4F76
:1007300084E492E00E946402A0918401B09185015A
:100740002BE430E00E94420A2EE833E040E050E023
:100750000E94D30969017A018DE2C80ED11CE11C07
:10076000F11CB6018EE392E00E949902B60181E489
:1007700092E00E949902A0918201B091830124EB42
:1007800030E00E94420AA50194010E94D309B901F8
:100790008BE392E0FF90EF90DF90CF90BF90AF900F
:1007A0009F908F900C9499029CB59F7D9CBD9CB5A9
:1007B000937F9CBD9CB59C7F9CBD9DB59E7F9DBD40
:1007C000682F80912C020C94B901CF9380E090E0C7
:1007D0000E94D40381EE0E947103C82F81E090E053
:1007E0000E94D4038C2FCF910895CF9380E090E0A6
:1007F0000E94D40382EE0E947103C82F81E090E032
:100800000E94D4038C2FCF910895EF92FF920F9303
:100810001F93CF93DF9300D0CDB7DEB7082F162FED
:1008200080E090E049837A830E94D403802F8F7107
:1008300080620E947103082FE12E7A81F72E498190
:10084000140F1E1531F0F70181917F010E94710391
:10085000F8CF81E090E00E94D403802F0F900F909A
:10086000DF91CF911F910F91FF90EF9008951F930B
:10087000CF93DF931F92CDB7DEB7182F80E090E0C3
:1008800069830E94D403812F8F7180620E9471035B
:10089000182F6981862F0E94710381E090E00E94E9
:1008A000D403812F0F90DF91CF911F910895CF93A3
:1008B000C82F80E090E00E94D4038C2F8F710E949B
:1008C00071038FEF0E947103C82F81E090E00E94B6
:1008D000D4038C2FCF91089580E00E945704682F95
:1008E000636080E00E94370460E787E00E9437047D
:1008F00020913302309134024091350250913602FA
:1009000060913702709138028091390290913A02D9
:10091000A0E00E94490A31F045E063E372E08AE01A
:100920000E9405040E94F5030E94E50361E08091A6
:100930002B020E94B90183E092E00197F1F708953C
:10094000009769F0FC0101900020E9F73197AF01B1
:10095000481B590BBC018EE891E00C94AF0080E07D
:1009600090E008958F929F92AF92BF920F931F9342
:10097000CF93DF93CDB7DEB7A1970FB6F894DEBF64
:100980000FBECDBF19A2423008F44AE08E010F5DC0
:100990001F4F842E912CA12CB12CA50194010E94F3
:1009A000050AE62FB901CA0101501109EA3014F411
:1009B000E05D01C0E95CD801EC93232B242B252BAF
:1009C00061F7C8010E94A004A1960FB6F894DEBF9B
:1009D0000FBECDBFDF91CF911F910F91BF90AF9010
:1009E0009F908F900895CF92DF92EF92FF92CF93D6
:1009F000DF936C01990FEE08FF08F7FE1FC0E0912E
:100A00008E01F0918F010190F081E02D6DE28EE872
:100A100091E00995EC0166277727CB016C197D09D8
:100A20008E099F094AE00E94B2048C0F9D1FDF913E
:100A3000CF91FF90EF90DF90CF9008954AE0C701EB
:100A4000B601DF91CF91FF90EF90DF90CF900C94A3
:100A5000B2040E945B0A1F920F920FB60F921124EC
:100A60002F933F934F935F936F937F938F939F93B6
:100A7000AF93BF93EF93FF938EE891E00E9425011F
:100A8000FF91EF91BF91AF919F918F917F916F9166
:100A90005F914F913F912F910F900FBE0F901F903C
:100AA00018951F920F920FB60F9211242F938F93C8
:100AB0009F93EF93FF93E0919E01F0919F018081BE
:100AC000E091A401F091A50182FD12C09081809176
:100AD000A7018F5F8F732091A801821751F0E091D9
:100AE000A701F0E0E257FE4F958F8093A70101C068
:100AF0008081FF91EF919F918F912F910F900FBE69
:100B00000F901F9018951F920F920FB60F921124FD
:100B10002F933F938F939F93AF93BF9380917A01CD
:100B200090917B01A0917C01B0917D013091740185
:100B300023E0230F2D3720F40196A11DB11D05C020
:100B400026E8230F0296A11DB11D20937401809306
:100B50007A0190937B01A0937C01B0937D018091F9
:100B6000750190917601A0917701B091780101967D
:100B7000A11DB11D8093750190937601A09377011B
:100B8000B0937801BF91AF919F918F913F912F9139
:100B90000F900FBE0F901F9018951F920F920FB6D7
:100BA0000F9211242F933F934F935F936F937F93F3
:100BB0008F939F93AF93BF93EF93FF9380914E01D9
:100BC00087FF05C010928500109284001BC0209101
:100BD0004E01022E000C330B80914F0190E028173C
:100BE000390784F480914E01082E000C990BFC010A
:100BF000EE0FFF1F8E0F9F1FFC01E05BFE4F8081F9
:100C000086FD15C080914E018F5F80934E0120912B
:100C10004E01022E000C330B80914F0190E02817FB
:100C20003907C4F480914E018C3064F113C0809177
:100C30004E01082E000C990BFC01EE0FFF1F8E0FCA
:100C40009F1FFC01E05BFE4F808160E08F730E947C
:100C5000B901D8CF809184009091850004968034AA
:100C60009C4918F480E49CE905C08091840090912F
:100C70008500049690938900809388008FEF80937D
:100C80004E013BC0209184003091850080914E013F
:100C9000082E000C990BFC01EE0FFF1F8E0F9F1FFB
:100CA000FC01E05BFE4F81819281820F931F909344
:100CB00089008093880080914E01082E000C990BCA
:100CC000FC01EE0FFF1F8E0F9F1FFC01E05BFE4F2C
:100CD000808186FF12C080914E01082E000C990B76
:100CE000FC01EE0FFF1F8E0F9F1FFC01E05BFE4F0C
:100CF000808161E08F730E94B901FF91EF91BF91F4
:100D0000AF919F918F917F916F915F914F913F91A3
:100D10002F910F900FBE0F901F901895EEE8F1E005
:100D20001382128288EE93E0A0E0B0E08483958382
:100D3000A683B78384E091E09183808385EC90E083
:100D40009587848784EC90E09787868780EC90E095
:100D5000918B808B81EC90E0938B828B82EC90E086
:100D6000958B848B86EC90E0978B868B118E128E00
:100D7000138E148E84E492E00E94550381E492E085
:100D80000E9455038EE392E00E9455038BE392E0AC
:100D90000E945503EBE2F2E089E080838AE08183E0
:100DA00081E08283138280E284831582168210861A
:100DB0001186128613861486158616861786089560
:100DC000CF93DF93CDB7DEB764970FB6F894DEBF4D
:100DD0000FBECDBF789484B5826084BD84B5816038
:100DE00084BD85B5826085BD85B5816085BD8091F6
:100DF0006E00816080936E0010928100809181006E
:100E00008260809381008091810081608093810065
:100E1000809180008160809380008091B100846027
:100E20008093B1008091B00081608093B000809188
:100E30007A00846080937A0080917A008260809347
:100E40007A0080917A00816080937A0080917A00A4
:100E5000806880937A001092C100E0919E01F09129
:100E60009F0182E08083E0919A01F0919B011082C2
:100E7000E0919C01F0919D018FEC80831092A6017E
:100E8000E091A201F091A30186E08083E091A001AE
:100E9000F091A101808180618083E091A001F091B7
:100EA000A101808188608083E091A001F091A1017F
:100EB000808180688083E091A001F091A101808110
:100EC0008F7D808380912B020E94900080912C0264
:100ED0000E9490001FB7F89480917901811124C07D
:100EE000ECEAF0E08491E0ECF0E09491E82FF0E09F
:100EF000EE0FFF1FE856FF4FA591B491EC91E92347
:100F000021F461E08AE00E94B9018AE00E94900029
:100F10008CB580618CBD8CB580648CBD8DE00E94E9
:100F200090008BE00E949000809179018F5F809308
:100F300079011FBF60E080912B020E94B90181E01E
:100F400090E00E94D40365E070E080E090E00E94B1
:100F50002A026FE484E00E94370486E00E9457046E
:100F6000682F666086E00E94370486E00E9457047E
:100F700010922D02877D182F1062612F86E00E944B
:100F8000370486E00E945704811709F421C11092AA
:100F90002D0286E00E94570410922D02182F177D13
:100FA000612F86E00E94370486E00E945704811377
:100FB00010922D0280E00E945704682F6C6080E040
:100FC0000E94370460E08CE10E94370460E787E00C
:100FD0000E9437046CE485E00E9437040E94F50308
:100FE0000E94E50381EE898780EF8A878B878C8753
:100FF0008D871E861F86188A45E0BE01675F7F4F7A
:101000008AE00E94050445E0BE01675F7F4F80E1F2
:101010000E94050460912F02613208F060E281E1D4
:101020000E94370482ED898380EF8A838B838C83CF
:101030008D831E821F821886E9E8F0E0849145E0E6
:10104000BE016F5F7F4F0E940504E3E8F0E08491EA
:1010500060912F020E94370482E00E945704EDE75E
:10106000F0E0E49161E070E001C0660FEA95EAF714
:10107000682B82E00E9437040E946C0469E070E0F3
:1010800084E492E00E94EB0268EE73E084E492E074
:101090000E94640265E070E08EE392E00E94EB0241
:1010A00066E070E081E492E00E94EB0263E070E0B1
:1010B0008BE392E00E94EB0293E5E92E92E0F92E99
:1010C00027E3C22ED12C80E090E00E94D4038FEF62
:1010D0000E947103182F81E090E00E94D40316FF54
:1010E00072C060E487E00E94370415FF75C060E2BB
:1010F00087E00E94370470C081E090E00E94D40332
:1011000061E080912B020E94B901C6010197F1F7BD
:1011100060E080912B020E94B9018FB7F894809013
:101120007A0190907B01A0907C01B0907D018FBFEF
:1011300080E090E00E94D40388E00E947103182FA1
:101140008FEF0E94710381E090E00E94D40310733E
:1011500009F413C160E787E00E94370486FB882703
:1011600080F980933002882389F080E090E00E942B
:10117000D40380E60E9471038FEF0E947103182F41
:1011800081E090E00E94D4031093320280E00E943C
:101190005704682F6D7F80E00E9437040E94E503AA
:1011A00069897A898B899C894AE00E94B2048AE421
:1011B00091E00E94A0046AE070E080E090E00E946C
:1011C0002A020E946C040E9478030E94AF017BCF28
:1011D00081E080932E02DDCE10912F02012F193075
:1011E00008F008E080913102811102C0101B01C09B
:1011F00010E080E090E00E94D40381E60E94710339
:1012000086E8A82E81E0B82E015038F08FEF0E94BA
:101210007103F50181935F01F7CF112329F08FEF5F
:101220000E9471031150F9CF81E090E00E94D40335
:1012300087E10E94570464E170E080E090E00E9442
:101240002A0282E191E00E94A0048091860190919F
:1012500087010E94F30483E291E00E94A004809140
:101260008801909189010E94F30480E391E00E943B
:10127000A00480918C0190918D010E94F3048BE376
:1012800091E00E94A00480918A0190918B010E94BC
:10129000F30487E491E00E94A0048091860190917C
:1012A00087019093850180938401809188019091BA
:1012B0008901909383018093820180918C019091A8
:1012C0008D01909381018093800100918A0110919A
:1012D0008B0110937F0100937E010E947803C80167
:1012E0000E94F30460E080912B020E94B9010E94E9
:1012F000E5030E94F5032FB7F89480917A0190914D
:101300007B01A0917C01B0917D012FBF898B9A8BCD
:10131000AB8BBC8B80E00E9457048C7F682F62608F
:1013200080E00E943704C7010197F1F710912F0266
:10133000012F153008F004E080913102811102C0C4
:10134000101B01C010E080E090E00E94D40380EA0E
:101350000E947103CE0141965C01015030F0F5010D
:1013600081915F010E947103F8CF112309F4C4CE6B
:1013700080E00E9471031150F8CF2FB7F89480914C
:101380007A0190917B01A0917C01B0917D012FBFEA
:1013900088199909AA09BB09843F9140A105B105A3
:1013A00008F4C6CED7CE052E97FB1EF400940E94FB
:1013B000EA0957FD07D00E94050A07FC03D04EF446
:1013C0000C94EA0950954095309521953F4F4F4F29
:1013D0005F4F089590958095709561957F4F8F4FE1
:1013E0009F4F08950E94270AA59F900DB49F900DCE
:1013F000A49F800D911D11240895B7FF0C94F2094C
:101400000E94F209821B930B0895A1E21A2EAA1BD7
:10141000BB1BFD010DC0AA1FBB1FEE1FFF1FA217A4
:10142000B307E407F50720F0A21BB30BE40BF50BA1
:10143000661F771F881F991F1A9469F7609570952A
:10144000809590959B01AC01BD01CF010895A29FAD
:10145000B001B39FC001A39F700D811D1124911D88
:10146000B29F700D811D1124911D0895991B79E083
:1014700004C0991F961708F0961B881F7A95C9F724
:10148000809508950E94270AB7FF0895821B930B49
:1014900008950024A7FD00942A1730054005500543
:1014A00060057005800590050895EE0FFF1F0590FB
:1014B000F491E02D099481E090E0F8940C94600A96
:0414C000F894FFCFCE
:1014C400000000004601AF00DE008D010F01ED00B9
:1014D40001017061636B65743A207B746872757383
:1014E400743D002C20656C657661746F723D270035
:1014F400272C207275646465723D00272C20616975
:0E1504006C65726F6E3D007D0A000D0A0000DE
:00000001FF
